:020000040000FA
:04000000A2EF0BF070
:10060000003F065B4F666D7D077F6F777C395E79B3
:100610007100000E946E82948282000E766E000E3F
:10062000756E000E746E000E736E000E6A6E000E14
:10063000696E000E6C6E000E6B6E000E6E6E000E1C
:100640006D6E7168726820EED0F010EE39F0270EF2
:10065000DBCFE3FFE806FCE234EC0BF0FEEC0BF042
:1006600027EC0DF0390E096E000E0A6E5AEC0AF0F6
:10067000000E956E000E836E0F0E936E400E816E0F
:10068000C0EF05F027EC0DF022EC0DF061500118E1
:1006900009E162500218D8B450EF03F052EF03F0B2
:1006A0007AEF03F022EC0DF001C061F002C062F0BD
:1006B00022EC0DF001A05FEF03F061EF03F07AEFA1
:1006C00003F073507410D8A468EF03F06AEF03F0DE
:1006D0007AEF03F01DEC0DF0000E746E010E736ED8
:1006E000000E766E010E756EE5EC0CF0000E956E48
:1006F000000E836E75047610D8A481EF03F083EFAB
:1007000003F09CEF04F073047410D8A48AEF03F094
:100710008CEF03F09CEF04F027EC0DF022EC0DF0D1
:100720006350011809E164500218D8B49AEF03F03D
:100730009CEF03F09CEF04F022EC0DF001C063F09D
:1007400002C064F022EC0DF001A8A9EF03F0ABEFBA
:1007500003F0BBEF03F0000E956E000E836E000EEB
:10076000726E000E716E000E6E6E000E6D6E000EDB
:10077000766E020E756E22EC0DF001A6C2EF03F04C
:10078000C4EF03F0D4EF03F0000E956E000E836EFD
:10079000000E726E000E716E000E6E6E010E6D6EAA
:1007A000000E766E020E756E22EC0DF001AEDBEFE0
:1007B00003F0DDEF03F0EDEF03F0000E956E000E99
:1007C000836E000E726E000E716E000E6E6E020E63
:1007D0006D6E000E766E020E756E22EC0DF002A6A6
:1007E000F4EF03F0F6EF03F006EF04F0000E956E61
:1007F000000E836E000E726E000E716E000E6E6E35
:10080000030E6D6E000E766E020E756E22EC0DF00C
:1008100001A40DEF04F00FEF04F01FEF04F0000E41
:10082000956E000E836E000E726E000E716E000EDD
:100830006E6E040E6D6E000E766E020E756E22ECFC
:100840000DF001AC26EF04F028EF04F038EF04F0CF
:10085000000E956E000E836E000E726E000E716EAD
:10086000000E6E6E050E6D6E000E766E020E756ECB
:1008700022EC0DF002A43FEF04F041EF04F051EF41
:1008800004F0000E956E000E836E000E726E000E68
:10089000716E000E6E6E060E6D6E000E766E020E9E
:1008A000756E22EC0DF001A258EF04F05AEF04F03F
:1008B0006AEF04F0000E956E000E836E000E726EED
:1008C000000E716E000E6E6E070E6D6E000E766E6F
:1008D000020E756E22EC0DF001AA71EF04F073EFB9
:1008E00004F083EF04F0000E956E000E836E000E90
:1008F000726E000E716E000E6E6E080E6D6E000E42
:10090000766E020E756E22EC0DF002A28AEF04F0F4
:100910008CEF04F09CEF04F0000E956E000E836ED9
:10092000000E726E000E716E000E6E6E090E6D6E10
:10093000000E766E020E756E020E75187610D8A433
:10094000A4EF04F0A6EF04F0B5EF04F07304741004
:10095000D8A4ADEF04F0AFEF04F0B5EF04F09DECD8
:100960000CF0000E766E030E756E030E7518761081
:10097000D8A4BDEF04F0BFEF04F0CEEF04F0730491
:100980007410D8A4C6EF04F0C8EF04F0CEEF04F062
:1009900053EC0CF0000E766E040E756E040E751896
:1009A0007610D8A4D6EF04F0D8EF04F0E7EF04F007
:1009B00073047410D8A4DFEF04F0E1EF04F0E7EF64
:1009C00004F0CDEC0CF0000E766E050E756E050E83
:1009D00075187610D8A4EFEF04F0F1EF04F000EFF3
:1009E00005F073047410D8A4F8EF04F0FAEF04F0E3
:1009F00000EF05F053EC0CF0000E766E060E756EEF
:100A0000060E75187610D8A408EF05F00AEF05F069
:100A100019EF05F073047410D8A411EF05F013EF6B
:100A200005F019EF05F06DEC0CF0000E766E070E78
:100A3000756E070E75187610D8A421EF05F023EF18
:100A400005F068EF05F073047410D8A42AEF05F0E0
:100A50002CEF05F068EF05F027EC0DF022EC0DF01F
:100A60006550011809E166500218D8B43AEF05F054
:100A70003CEF05F068EF05F022EC0DF001C065F0E9
:100A800002C066F022EC0DF002A049EF05F04BEF3A
:100A900005F057EF05F0000E956E000E836E000E08
:100AA0006A6E010E696E000E766E080E756E22EC8F
:100AB0000DF001A05EEF05F060EF05F068EF05F0C6
:100AC000000E956E000E836E000E766E090E756E2A
:100AD000080E75187610D8A470EF05F072EF05F0C7
:100AE0008CEF05F073047410D8A479EF05F07BEF58
:100AF00005F08CEF05F069046A10D8A482EF05F0C8
:100B000084EF05F08CEF05F0B5EC0CF0714A722A19
:100B1000000E766E090E756E090E75187610D8A443
:100B200094EF05F096EF05F0A5EF05F0730474104F
:100B3000D8A49DEF05F09FEF05F0A5EF05F053EC6D
:100B40000CF0000E766E0A0E756E0A0E7518761091
:100B5000D8A4ADEF05F0AFEF05F0BEEF05F07304DC
:100B60007410D8A4B6EF05F0B8EF05F0BEEF05F0AD
:100B700085EC0CF0000E766E020E756E90EC08F0AF
:100B80006D50715C7250800A386E6E50800A385811
:100B9000D8A0CDEF05F0CFEF05F042EF03F0715094
:100BA0006D1807E172506E18D8A4D9EF05F0DBEF8D
:100BB00005F0E3EF05F08292FEEC0BF0030E016E00
:100BC0007150D2EC0BF027EC0DF022EC0DF06750D9
:100BD000011809E168500218D8B4F1EF05F0F3EFFD
:100BE00005F006EF06F022EC0DF001C067F002C040
:100BF00068F022EC0DF001A000EF06F002EF06F025
:100C000006EF06F0000E6C6E010E6B6E4EEC09F0F6
:100C100090EC08F0000E706E000E6F6E6F4A702A36
:100C200070BE1CEF06F0260E6F5C020E7058D8A046
:100C30001CEF06F01EEF06F00EEF06F06B046C10D2
:100C4000D8A425EF06F027EF06F02AEF06F08282FF
:100C500005EC0DF0000E706E000E6F6E6F4A702A7C
:100C600070BE3CEF06F0A40E6F5C010E7058D8A069
:100C70003CEF06F03EEF06F02EEF06F0C0EF05F079
:100C800000EF00F002BE50EF06F0025007E1080E40
:100C9000015CD8B04EEF06F050EF06F07AEF06F0A8
:100CA00003500410D8B457EF06F059EF06F069EF7F
:100CB00006F001C005F0010E066E052A62EF06F08F
:100CC000D8900636052E60EF06F00650921268EFB7
:100CD00007F001C005F0010E066E052A72EF06F05E
:100CE000D8900636052E70EF06F00650FF0A9216D1
:100CF00068EF07F002BE88EF06F0025007E1100E21
:100D0000015CD8B086EF06F088EF06F0B6EF06F08B
:100D100003500410D8B48FEF06F091EF06F0A3EF64
:100D200006F001C005F0F80E0526010E066E052A34
:100D30009CEF06F0D8900636052E9AEF06F0065086
:100D4000931268EF07F001C005F0F80E0526010EBA
:100D5000066E052AAEEF06F0D8900636052EACEFEB
:100D600006F00650FF0A931668EF07F002BEC4EFC4
:100D700006F0025007E1180E015CD8B0C2EF06F091
:100D8000C4EF06F0F2EF06F003500410D8B4CBEF36
:100D900006F0CDEF06F0DFEF06F001C005F0F00E33
:100DA0000526010E066E052AD8EF06F0D890063605
:100DB000052ED6EF06F00650941268EF07F001C03A
:100DC00005F0F00E0526010E066E052AEAEF06F084
:100DD000D8900636052EE8EF06F00650FF0A941666
:100DE00068EF07F002BE00EF07F0025007E1200EA7
:100DF000015CD8B0FEEF06F000EF07F02EEF07F031
:100E000003500410D8B407EF07F009EF07F01BEF09
:100E100007F001C005F0E80E0526010E066E052A52
:100E200014EF07F0D8900636052E12EF07F00650A3
:100E3000951268EF07F001C005F0E80E0526010ED7
:100E4000066E052A26EF07F0D8900636052E24EF09
:100E500007F00650FF0A951668EF07F002BE3CEF58
:100E600007F0025007E1280E015CD8B03AEF07F016
:100E70003CEF07F068EF07F003500410D8B443EFDD
:100E800007F045EF07F057EF07F001C005F0E00E5F
:100E90000526010E066E052A50EF07F0D89006369B
:100EA000052E4EEF07F00650961268EF07F001C0CE
:100EB00005F0E00E0526010E066E052A62EF07F02A
:100EC000D8900636052E60EF07F00650FF0A9616FA
:100ED000120002BE77EF07F0025007E1080E015C36
:100EE000D8B075EF07F077EF07F0A1EF07F00350E8
:100EF0000410D8B47EEF07F080EF07F090EF07F012
:100F000001C005F0010E066E052A89EF07F0D890A2
:100F10000636052E87EF07F0065080128FEF08F097
:100F200001C005F0010E066E052A99EF07F0D89072
:100F30000636052E97EF07F00650FF0A80168FEF52
:100F400008F002BEAFEF07F0025007E1100E015C9F
:100F5000D8B0ADEF07F0AFEF07F0DDEF07F0F80E18
:100F60000126FF0E022203500410D8B4BAEF07F096
:100F7000BCEF07F0CCEF07F001C005F0010E066EE4
:100F8000052AC5EF07F0D8900636052EC3EF07F007
:100F9000065081128FEF08F001C005F0010E066EB9
:100FA000052AD5EF07F0D8900636052ED3EF07F0C7
:100FB0000650FF0A81168FEF08F002BEEBEF07F034
:100FC000025007E1180E015CD8B0E9EF07F0EBEF33
:100FD00007F019EF08F0F00E0126FF0E0222035071
:100FE0000410D8B4F6EF07F0F8EF07F008EF08F0B8
:100FF00001C005F0010E066E052A01EF08F0D89039
:101000000636052EFFEF07F0065082128FEF08F02C
:1010100001C005F0010E066E052A11EF08F0D89008
:101020000636052E0FEF08F00650FF0A82168FEFE6
:1010300008F002BE27EF08F0025007E1200E015C25
:10104000D8B025EF08F027EF08F055EF08F0E80ECC
:101050000126FF0E022203500410D8B432EF08F02C
:1010600034EF08F044EF08F001C005F0010E066E01
:10107000052A3DEF08F0D8900636052E3BEF08F024
:10108000065083128FEF08F001C005F0010E066EC6
:10109000052A4DEF08F0D8900636052E4BEF08F0E4
:1010A0000650FF0A83168FEF08F002BE63EF08F0C8
:1010B000025007E1280E015CD8B061EF08F063EF41
:1010C00008F08FEF08F0E00E0126FF0E0222035019
:1010D0000410D8B46EEF08F070EF08F080EF08F05D
:1010E00001C005F0010E066E052A79EF08F0D890D0
:1010F0000636052E77EF08F0065084128FEF08F0C1
:1011000001C005F0010E066E052A89EF08F0D8909F
:101110000636052E87EF08F00650FF0A84161200E7
:1011200083CF06F00F0E9512000E0A6EF80E93167E
:101130000AC001F0010E026E012AA1EF08F0D8905A
:101140000236012E9FEF08F002509312070E811213
:101150000AC001F0010E026E012AB1EF08F0D8902A
:101160000236012EAFEF08F00250FF0A8116000E82
:10117000086E000E076E074A082A08BEC9EF08F07D
:10118000085009E10A0E075CD8A0C9EF08F0CBEFC0
:1011900008F0BBEF08F0000E096E09C001F0010E67
:1011A000026E012AD6EF08F0D8900236012ED4EF55
:1011B00008F0025083140009D8A4E1EF08F0E3EF2F
:1011C00008F0FBEF08F00A50040DF3500924016EFB
:1011D000010E026E000E036E012AF2EF08F0D890A5
:1011E00002360336012EEFEF08F00250771203505B
:1011F000781215EF09F00A50040DF3500924016E1E
:10120000010E026E000E036E012A0AEF09F0D8905B
:1012100002360336012E07EF09F0021C046E031C90
:10122000056E0450771605507816092A030E0964D6
:101230001CEF09F01EEF09F0CDEF08F00A2A020EAC
:101240000A6425EF09F027EF09F096EF08F07750D0
:101250000001F81907E17850F919D8A432EF09F024
:1012600034EF09F037EF09F07F063DEF09F00A0E81
:101270007F6E77C0F8F078C0F9F07F50D8A443EFC4
:1012800009F045EF09F049EF09F0F8C0FAF0F9C0AC
:10129000FBF006C083FF000E956E1200000E956EE7
:1012A000000E026E020E016E000E046E000E036E42
:1012B00069EC07F0000E026E030E016E000E046E64
:1012C000000E036E69EC07F0000E026E040E016E54
:1012D000000E046E000E036E69EC07F0000E026E45
:1012E000050E016E000E046E000E036E69EC07F031
:1012F000000E836ED8EF09F0010E7D24F66EF76ABA
:10130000060EF7220800F5CF83FF000E026E020ED4
:10131000016E000E046E010E036E69EC07F0010E03
:101320007E6EF5EF09F0010E7C24F66EF76A060E6C
:10133000F7220800F5CF83FF000E026E030E016E48
:10134000000E046E010E036E69EC07F0020E7E6E55
:10135000F5EF09F0010E7B24F66EF76A060EF72210
:101360000800F5CF83FF000E026E040E016E000E22
:10137000046E010E036E69EC07F0030E7E6EF5EF4E
:1013800009F0010E7A24F66EF76A060EF7220800BD
:10139000F5CF83FF000E026E050E016E000E046E87
:1013A000010E036E69EC07F0000E7E6EF5EF09F09A
:1013B0007E50076E086A0850000AD8B4E2EF09F0C0
:1013C000D4EF09F00750000AD8B47CEF09F0010A05
:1013D000D8B493EF09F0030AD8B4AAEF09F0010AD0
:1013E000D8B4C1EF09F0D4EF09F01200202020504A
:1013F0006563612073656E646F200A20202020726F
:10140000657469726164610A202020202020000038
:1014100000000000202020202020506563610A2069
:101420002020202020636F6D202020200A202020F3
:10143000204465666569746F2020202020202046A6
:1014400075726F2073656E646F0A202020202074EF
:1014500065737461646F0A20202020200000000062
:1014600000000000202020506563612073656E64D9
:101470006F0A20202020206675726164610A202096
:1014800020202061677561726465000020202020A3
:101490004D65736120657374610A20206D6F7669F4
:1014A0006D656E74616E646F0A202020206167751F
:1014B00061726465000E0D6E010E0C6E000E0F6EF3
:1014C000000E0E6E0E500924D96E0F500A20DA6EEF
:1014D0000A0EDE18D8A46FEF0AF071EF0AF09FEF42
:1014E0000AF00C040D10D8A478EF0AF07AEF0AF095
:1014F0007FEF0AF0C00EB9EC0AF09BEF0AF0020E83
:101500000C180D10D8A487EF0AF089EF0AF08EEFBF
:101510000AF0900EB9EC0AF09BEF0AF0030E0C18DB
:101520000D10D8A496EF0AF098EF0AF09BEF0AF09E
:10153000D00EB9EC0AF00C4A0D2AA8EF0AF00E50B2
:101540000924D96E0F500A20DA6EDF5029EC0CF016
:101550000E4A0F2A0FBEB6EF0AF00F5009E1280E0F
:101560000E5CD8A0B6EF0AF0B8EF0AF062EF0AF00E
:101570001200086E83CF07F0000E956E000E026E0B
:10158000220E016E000E046E000E036E69EC07F071
:1015900008C083FF000E026E210E016E000E046E65
:1015A000010E036E69EC07F0000E026E210E016E53
:1015B000000E046E000E036E69EC07F007C083FF97
:1015C000020E0818D8B4E7EF0AF0E9EF0AF0F1EFDD
:1015D0000AF00804D8A4EFEF0AF0F1EF0AF0F5EFF3
:1015E0000AF0F7EC0CF0F7EF0AF011EC0DF0120036
:1015F000202020202020506563610A2073656E64DE
:101600006F20696E7365726964610A202020206111
:101610006775617264650000496E73697261206E5E
:10162000756D65726F0A6D6178696D6F2064650A0A
:101630006465666569746F730A31206120393A0008
:101640005072657373696F6E65202A0A506172610A
:10165000204C69676172202020202020202020203B
:101660002000000000000000000E026E220E016E3D
:10167000000E046E000E036E42EC06F0000E026EC9
:10168000210E016E000E046E000E036E42EC06F099
:10169000000E956EF7EC0CF0F7EC0CF0F7EC0CF09C
:1016A000F7EC0CF0F7EC0CF0380EB9EC0AF0F7ECB4
:1016B0000CF0F7EC0CF0380EB9EC0AF0F7EC0CF08B
:1016C000380EB9EC0AF0380EB9EC0AF0060EB9EC97
:1016D0000AF00C0EB9EC0AF0010EB9EC0AF0120097
:1016E000000E046E000E036E96EF0BF0000E056EFA
:1016F000280E05647EEF0BF080EF0BF082EF0BF00D
:1017000094EF0BF0000E066E020E06648AEF0BF0EB
:101710008CEF0BF08EEF0BF091EF0BF0062A84EFBD
:101720000BF0052A78EF0BF0034A042A0150035C02
:1017300002500458D8A09FEF0BF0A1EF0BF076EF0A
:101740000BF01200EC0EF66E130EF76E000EF86E34
:1017500001EE00F010EEC8F00900F5CFEEFFE55005
:10176000E150FAE1F00EF66E150EF76E000EF86E0F
:1017700000EE80F010EE78F00900F5CFEEFFE550B6
:10178000E150FAE10001FB6BFA6BF96BF86B00EECC
:1017900077F0090EEE6AE806FDE1000EF86E000132
:1017A00009EF03F0026E0150D8A4D9EF0BF0DBEF84
:1017B0000BF0DDEF0BF002C07DF00104D8A4E3EFE5
:1017C0000BF0E5EF0BF0E7EF0BF002C07CF0020E40
:1017D0000118D8A4EEEF0BF0F0EF0BF0F2EF0BF0E6
:1017E00002C07BF0030E0118D8A4F9EF0BF0FBEF59
:1017F0000BF0FDEF0BF002C07AF01200000E026E4B
:10180000020E016E000E046E000E036E42EC06F036
:10181000000E026E030E016E000E046E000E036ECB
:1018200042EC06F0000E026E040E016E000E046E15
:10183000000E036E42EC06F0000E026E050E016E05
:10184000000E046E000E036E42EC06F0000E956E64
:101850001200076E83CF08F0000E956E000E026E28
:10186000220E016E000E046E010E036E69EC07F08D
:1018700007C083FF000E026E210E016E000E046E83
:10188000010E036E69EC07F0000E026E210E016E70
:10189000000E046E000E036E69EC07F008C083FFB3
:1018A00011EC0DF01200828434EC0BF021EEA0F06C
:1018B00010EE10F0270EDBCFE3FFE806FCE2100E7F
:1018C000096E000E0A6E5AEC0AF00B0E026EB80E8C
:1018D000016E70EC0BF08294120034EC0BF021EEF0
:1018E00050F010EE10F0270EDBCFE3FFE806FCE22D
:1018F000100E096E000E0A6E5AEC0AF00B0E026E04
:10190000B80E016E70EC0BF0120034EC0BF021EE0F
:1019100000F010EE10F0270EDBCFE3FFE806FCE24C
:10192000100E096E000E0A6E5AEC0AF00B0E026ED3
:10193000B80E016E70EC0BF0120034EC0BF020EEE0
:1019400080F010EE10F0270EDBCFE3FFE806FCE29C
:10195000100E096E000E0A6E5AEC0AF00B0E026EA3
:10196000B80E016E70EC0BF0120034EC0BF021EEAF
:1019700028F010EE10F0270EDBCFE3FFE806FCE2C4
:10198000100E096E000E0A6E5AEC0AF00B0E026E73
:10199000B80E016E70EC0BF0120034EC0BF021EE7F
:1019A00078F010EE10F0270EDBCFE3FFE806FCE244
:1019B000100E096E000E0A6E5AEC0AF00B0E026E43
:1019C000B80E016E70EC0BF0120034EC0BF020EE50
:1019D000A8F010EE10F0270EDBCFE3FFE806FCE2E4
:1019E000100E096E000E0A6E5AEC0AF01200000E7C
:1019F000026E11EC0DF0022A310E026402EF0DF0BE
:101A000004EF0DF0F9EF0CF012000F0E936E000EC4
:101A1000956E400E816E000E836E010EB9EC0AF0D9
:101A20001200000E016E012A180E01641AEF0DF06B
:101A30001CEF0DF013EF0DF012000F0E936E800EE1
:101A4000816E1200FAC001F0FBC002F01200070E16
:081A500093160F0E951212000F
:020000040020DA
:08000000FFFFFFFFFFFFFFFF00
:020000040030CA
:0E000000FF027100FF8380FF0FC00FE00F4072
:00000001FF
